:020000040800F2
:10000000B8070020450200088102000883020008AA
:10001000850200088702000889020008000000002D
:100020000000000000000000000000008B0200083B
:100030008D020008000000008F02000891020008F5
:10004000930200089302000893020008930200083C
:100050009302000893020008B50B00089302000801
:10006000930200089302000893020008930200081C
:10007000930200089302000893020008930200080C
:1000800093020008930200089302000893020008FC
:1000900093020008930200089302000893020008EC
:1000A00093020008930200089302000893020008DC
:1000B00093020008930200089302000893020008CC
:1000C00093020008930200089302000893020008BC
:1000D00093020008930200089302000893020008AC
:1000E000930200089302000893020008930200089C
:1000F000930200089302000893020008930200088C
:10010000930200089302000893020008930200087B
:10011000930200089302000893020008930200086B
:10012000930200089302000893020008930200085B
:10013000930200089302000893020008930200084B
:10014000930200089302000893020008930200083B
:10015000930200089302000893020008930200082B
:10016000930200089302000893020008930200081B
:1001700093020008930200089302000800000000A8
:10018000930200089302000800F002F800F04AF819
:100190000AA090E8000C82448344AAF10107DA45E2
:1001A00001D100F03FF8AFF2090EBAE80F0013F0EA
:1001B000010F18BFFB1A43F001031847E4130000B6
:1001C00004140000103A24BF78C878C1FAD8520746
:1001D00024BF30C830C144BF04680C6070470000C1
:1001E0000023002400250026103A28BF78C1FBD840
:1001F000520728BF30C148BF0B607047642900F028
:10020000AB80002070471FB501F070F900F086FC4C
:1002100004000020002101F053F9401C60601FBD64
:1002200010B510BD00F03FFC1146FFF7ECFF00F0E9
:10023000FDFE00F065FC03B4FFF7F2FF03BC00F025
:10024000B1FC000016481749174B99423CBF50F8C3
:10025000042B41F8042BF8D314494FF000028B42D1
:1002600038BF43F8042BFAD3DFF84400016841F4A7
:1002700070010160BFF34F8FBFF36F8F0D480047D0
:10028000FEE7FEE7FEE7FEE7FEE7FEE7FEE7FEE746
:10029000FEE7FEE708480949094A0A4B7047000093
:1002A000D01600080000002038000020B807002009
:1002B00088ED00E089010008B8010020B80700209F
:1002C000B8030020B80300200FB41CB5074B06AAE2
:1002D0007B4469460090059800F0C1F9002069460A
:1002E00000F0D0F91CBC5DF814FB0000B103000065
:1002F0002DE9F0410E460446002020622046E168C8
:10030000884730B3252805D0D4E901219047206AD9
:10031000401CF2E7E168204600278847050018D016
:10032000A5F14100192802D820354FF40067324664
:10033000294620462760FFF761FF40B1012804D01D
:10034000F61D26F007060836D8E7361DD6E72846FC
:10035000DAE7206ABDE8F0812DE9F0410646002485
:1003600010687529314616A510D0AFF3008000281B
:1003700002DA404213A507E031688A0701D512A5C9
:1003800002E0490704D511A5012401E0AFF3008084
:1003900000210A2206F1240709E0B0FBF2FCB0FBC1
:1003A000F2F302FB1C00303078541846491C002838
:1003B000F3D123462A463046BDE8F04100F0F1B8BB
:1003C000000000002D0000002B00000020000000B5
:1003D0000FB400B58DB010A9099000910B904FF0AB
:1003E000FF300A9000200C9006487844069006489A
:1003F00078446A4607900F9909A800F05DF90DB09E
:100400005DF814FBEB020000030300002DE9FF5F21
:100410001D464FF0FF3B91464FF000085F46D5E97F
:100420000146A96901987F1C8847296A8246884746
:100430000028F6D1BAF1FF3F0CD0002E24F4C0649E
:1004400019DD600614D5BAF12B0F09D0BAF12D0FC2
:100450000ED103E0584604B000F07EB844F4806446
:10046000A96901987F1C8847761E8246002E02DD0E
:10047000BAF1300F03D0B9F1000F26D032E0A969EC
:10048000761E01987F1C44F400748847002E824633
:1004900005DDBAF1780F06D0BAF1580F03D0B9F1E3
:1004A000000F10D01EE0B9F1000F02D0B9F1100F0B
:1004B00018D1A969761E01987F1C24F4007488471E
:1004C0008246102002E0082000E00A20814609E070
:1004D000A96908FB0908761E01987F1C44F4007482
:1004E00088478246002E05DD4946504600F0CFF889
:1004F0000028EDDAE96901988847A00502D46FF079
:100500000100A8E7E00725D1600613D5600502D5F4
:10051000C8F1000000E0404629680A1D2A60096809
:10052000220501D5087015E0220701D5088011E0E9
:1005300008600FE02868011D29600068210502D5C8
:1005400080F8008006E0210702D5A0F8008001E0D5
:10055000C0F8008038467EE730BCBDE8C09F10B5CB
:10056000431C02E010F8011B71B18107FAD14FF072
:10057000013202C88C1A8C4314EAC211F9D0C01A95
:100580000A0603D0C01E10BDC01A10BD0A0401D057
:10059000801E10BD0902FCD0401E10BD7047704780
:1005A00070472DE9F0470D4699469246044600F102
:1005B00024080168880604D5E06921F01001216053
:1005C00000E00120A84201DD471B00E00027A169EF
:1005D0007A1902EB0900081AA0612078C00602D43B
:1005E0002046AFF30080002608E0D4E901211AF884
:1005F00006009047206A401C761C20624E45F4DBC2
:100600002078C0060AD52046AFF3008006E0D4E982
:10061000012130209047206A401C2062381EA7F13B
:100620000107F4DC07E0D4E9012118F80500904740
:10063000206A401C2062281EA5F10105F3DC20463B
:10064000AFF300802078000602D50220BDE8F087D5
:100650000120FBE701694A1C02610878704700B578
:100660008FB0CDE901310021059105497944CDE9EB
:10067000031011466846FFF73BFE0FB000BD0000B7
:10068000E5FFFFFF0A6802F8010B0A6070473A288D
:1006900000D2303820F02002412A01D3A2F13700E5
:1006A000884201D34FF0FF307047000002681144C8
:1006B0001378016018467047D1600549794451614B
:1006C00004497944116200211161114600F02EB8ED
:1006D000EDFFFFFF53000000426842B1016811F8CE
:1006E000013B23B1521EC0E9001218467047012198
:1006F000C160881E704742685AB1C368016843B937
:1007000083688B4205D0491E521CC0E900120020AC
:1007100070474FF0FF30704710B5044600F0E8F91D
:100720000068005D00F0010010BD00002DE9F34FEE
:100730004FF0000A0C4656468DB001200C9001F196
:100740000C000B9062690B9801219047051E2DD07B
:10075000252D2CD0216A8847C0B162690B980121F0
:100760009047216A88470028F7D16269411E0B989B
:10077000904700E0761CA1690D988847216A884758
:100780000028F7D1E1690D988847DBE7A1690D984A
:100790008847A842074601D1761CD3E7E1690D9846
:1007A00088477F1C02D1BAF1000F6FD06BE16269FC
:1007B0000B9800273D46394690472A2804D16269A4
:1007C0000B98012190470125DFF8D08262690B98D0
:1007D00001219047A0F130010A290AD24745E5DC02
:1007E00007EB870100EB4107303FDFD445F01005F0
:1007F000ECE7E90601D46FF000476C280AD04C28DA
:1008000014D0682815D06A280DD074281CD07A28F6
:100810001AD01DE062690B98012190476C2802D024
:1008200045F0040514E045F002050DE045F0200513
:100830000AE062690B9801219047682802D045F0D0
:10084000080505E045F4006562690B9801219047B1
:10085000C4E9015765283DD019DC58287AD00CDC52
:10086000452837D004DC252826D041289ED131E008
:1008700046282FD0472899D12CE05B2877D06128D3
:1008800028D063287CD0642823D15AE0F6E06F2872
:1008900048D008DC66281DD067281BD0692821D0E5
:1008A0006E2816D127E0702845D0732868D07528A7
:1008B00047D078280DD14DE0A1690D9888472528AB
:1008C00005463FF469AFE1690D9888476D1C3FF418
:1008D0006AAFD8E00D9923466A466FF00100AFF386
:1008E0000080C5E045F0400023464FF00002606004
:1008F000A80736D43EE0E8077FF447AF2068011D23
:1009000021600068290501D506701BE7290701D57C
:10091000068017E7A90703D5F117C0E9006111E7C1
:1009200006600FE745F0400023464FF00802606084
:10093000A80716D41EE040F60E0125EA010060600B
:1009400016E045F0400023464FF00A026060A80719
:1009500007D40FE045F040006060A80708D52346A3
:1009600010220D996FF00100AFF3008080E007E0E6
:10097000102223460D996FF00100FFF747FD77E045
:100980004FF0000963284F46C8464B46CB4602D07D
:100990005B2806D038E0E80601D40120A0600127DA
:1009A00032E06269D4F80CB00B98012190475E28C0
:1009B00007D14FF0010949466269D4F80CB00B9891
:1009C0009047216939B900210A4603AB43F8212039
:1009D000491C0829FADBD8B3216949B308F1010899
:1009E00062690B98012190475D28F4D1B9F1000F9D
:1009F00009D0002003A951F82020D24341F820203B
:100A0000401C0828F7DB03AB2069002820794FEA57
:100A100040701ED05B462246CDF80080CDE901979C
:100A20000D9900286FF0010020DAAFF300801FE07D
:100A3000C11703AA00EBD1614B1121F01F0102EB9A
:100A40008302411A13680120884003431360C7E7FB
:100A500019E00D99224600286FF00100009702DA94
:100A6000AFF3008004E0AFF3008001E0AFF300805B
:100A700000280ADA401C06D10C9820B14FF0FF3054
:100A80000FB000F00DB85046FAE7E90701D10AF1BE
:100A9000010A064400200C9054E60000CCCCCC0C9B
:100AA00030BCBDE8C08F754600F034F8AE46050096
:100AB0006946534620F00700854618B020B5FFF779
:100AC000E9FBBDE820404FF000064FF000074FF073
:100AD00000084FF0000B21F00701AC46ACE8C0095C
:100AE000ACE8C009ACE8C009ACE8C0098D46704765
:100AF00010B500F013F8001D10BD00BFC5090000BF
:100B000010B50446AFF300802046BDE81040FFF763
:100B100092BB000000487047540100200048704715
:100B2000740100204FF0013C50F8042B51F8043BB5
:100B30009A4221D1A2EB0C03934313EACC1317D1B1
:100B400050F8042B51F8043B9A4215D1A2EB0C0348
:100B5000934313EACC130BD150F8042B51F8043B08
:100B60009A4209D1A2EB0C03934313EACC13DBD0D6
:100B70004FF00000704700BFD01A01BAB1FA81F1FE
:100B800001F0180122FA01F0CB40C1F12001DBB2E3
:100B9000C0B2C01A2CFA01F3D11A914311EAC31161
:100BA000E6D1704701491820ABBEFEE726000200DF
:100BB0007047000001201B4908608007406B1A49FC
:100BC000086000204FF0804148621848008808B350
:100BD00016480088B0F57A7F1CDC14480088401C59
:100BE000124908801048006811490968401A6528B0
:100BF00010D20D4800680E490968401A0D4931F8B5
:100C00001000401C08490968094A1268891A094AF3
:100C100022F811000848006840F001000649086009
:100C2000704700002400002028000020340000202D
:100C30002C0000208A000020140401402348C06CCE
:100C400040F012002149C8646FF03000204908606C
:100C50000846006840F0100008601D480830006831
:100C600020F030001A49083108600846006840F05A
:100C700030000860081F006820F00400091F0860A9
:100C800013480C30006820F0300011490C31086026
:100C90006FF440300F4908600846006840F4803027
:100CA00008600846806820F4403088600846806804
:100CB00040F4403088600846406820F48070486006
:100CC0000846C06820F44030C860704700100240F9
:100CD00000040048001000485E49096821F007013F
:100CE0005C4A11601146096841F0020111605A49DD
:100CF000096841F48071584A116000BF564909687B
:100D000001F480610029F9D010205349496821F08D
:100D1000F851514A51601146496841EA00615160F9
:100D20001146096821F08071116000BF4A490968C5
:100D300001F00071B1F1007FF8D04749C96821F096
:100D40000301454AD1601146C96841F00201D160F2
:100D50001146C96821F4FE4141F4A051D160114609
:100D6000C96821F0700141F01001D1601146C968D5
:100D700021F0C061D1601146C96841F08071D16035
:100D80001146096841F08071116000BF324909685D
:100D900001F000710029F9D02F49896821F0030181
:100DA0002D4A91601146896841F00301916000BFAE
:100DB0002949896801F00C010C29F9D12649896873
:100DC00021F0F001244A91601146896821F4E06124
:100DD00091601146896821F460519160114609685B
:100DE00021F08061116000BF1B49096801F080613A
:100DF000B1F1806FF8D01849096921F4FE41164A13
:100E000011611146096941F4C05111611146096926
:100E100041F4003111611146096941F480311161D9
:100E20001146096841F08061116000BF0A490968F4
:100E300001F080610029F9D007498831096821F45F
:100E40004001054AC2F888101146096E41F40011AC
:100E50001166704700200240001002401A48C06C22
:100E600040F008001849C8641848006820F4705021
:100E7000164908600846006840F42050086013488E
:100E80002030006840F0EE601049203108600F48C3
:100E90000830006840F470500C4908310860081DA3
:100EA000006820F47050091D08600846006840F48E
:100EB000A05008600548001D006820F0600003494C
:100EC000091D08607047000000100240000C004837
:100ED00000B50D48806D40F400300B4988650A4824
:100EE0008830006820F00C00C1F888000846D0F86F
:100EF000880040F00400C1F88800FFF7AFFF034806
:100F000000F010F800BD0000001002400044004056
:100F1000642242430723B2FBF3F100BF4A1E111EB5
:100F2000FCD17047016821F001010160016821F0E6
:100F300010210160016821F400410160416821F441
:100F40004051416042F28D01C160016841F00C01E5
:100F500001601E4988421BD1016841F020010160F7
:100F6000016821F040010160016821F01001016079
:100F7000016821F080010160016821F48071016045
:100F8000016821F040010160016821F00101016068
:100F90000F49884209D1016A41F0400101620D49BF
:100FA000096841F0C0010B4A1160016841F001017C
:100FB000016000BFC16901F400110029FAD000BF2F
:100FC000C16901F480010029FAD07047004C00404B
:100FD0000044004008380140014600BFC86900F0E5
:100FE00020000028FAD0888CC0B27047F0B50446C3
:100FF0000E46174600250CE000BFE06900F08000B7
:101000000028FAD0705D20854FF49670FFF780FFBE
:101010006D1CBD42F0D300BFE06900F04000002825
:10102000FAD0E06920F04000E061F0BD88B0FFF741
:1010300053FEFFF703FEFFF74BFF00F0C9F800F087
:10104000E7F800F015FA4FF08040406940F00100E9
:101050004FF08041486100BF00F060F80028FBD0ED
:1010600012221BA11F48FFF7C1FF2FE000BF00F0B5
:1010700043F90028FBD01C4803681C481CA10268E7
:1010800001A8FFF721F901A8FFF769FA04462246F3
:1010900001A91448FFF7AAFF002004E00021194A23
:1010A00022F81010401C6528F8DB01201649088042
:1010B00000BF15480088B0F57A7FFADD00F052F8DD
:1010C0000F2212A10748FFF791FF00BFCEE70000F3
:1010D0000D0A504F5354205355434345454445440E
:1010E0000D0A000000440040300000202C000020C9
:1010F00052616E676520697320256420746F202516
:10110000640D0A008A0000203400002052657374C8
:10111000617274696E672E2E2E0D0A0010B513E0F1
:101120004FF08040406A0B4988420DD955220A4948
:101130000A48FFF75BFF06E00848FFF74DFF0D2860
:1011400001D1002010BDF7E7054800680028E7D06E
:101150000120F7E7A0860100F814000800440040D1
:101160002400002030B587B0022212A11248FFF7F8
:101170003DFF002419E0114830F81400002813DD69
:101180000E4830F814300E48006802190DA1684668
:10119000FFF79AF86846FFF7E2F905462A466946DE
:1011A0000548FFF723FF00BF641C652CE3DB07B095
:1011B00030BD00000D0A0000004400408A000020FD
:1011C0002C00002025642075733A2025640D0A0048
:1011D0000E48C06C40F001000C49C8644FF09040CC
:1011E000006820F003004FF0904108600846006856
:1011F00040F0020008600846006A20F00F00086214
:101200000846006A40F00100086270470010024082
:101210002DE9F0413348006E44F2010108433149A1
:10122000086631488068304988603048006840F07E
:1012300001002E4908602D480830006840F0010088
:101240002A49083108600621294B1B68C3F3022094
:10125000012400250346C3F1070CBCF1040F02D999
:101260004FF0040C01E0C3F1070C674603F1040CD6
:10127000BCF1070F02D24FF0000C01E0A3F1030C08
:1012800066464FF0010C0CFA07FCACF1010C0CEABD
:10129000040C0CFA06FC4FF0010808FA06F8A8F155
:1012A000010808EA05084CEA080200BF002908DA2C
:1012B0001007040E0E480C3001F00F031B1FC4541E
:1012C00003E01007030E0B48435400BF0620012122
:1012D00081404209920002F1E022C2F8001100BFF1
:1012E000BDE8F08100100240000001400004014010
:1012F0000CED00E000E400E07CB5002500264E2265
:1013000030493148FFF772FE00200090019040F212
:10131000B6302E4908600846006864302C490860E1
:101320004CE02948FFF758FE0546792D3ED114229E
:1013300028A12548FFF75AFE002400BF1CB1304603
:10134000761C0DF800402048FFF746FE0446052EA7
:1013500006DD2C2225A11C48FFF748FE00207CBD9D
:101360000D2CEBD1194A2DA16846FFF731F830B9A1
:1013700011222BA11448FFF739FE0020EFE7134894
:101380000068322805D31148006842F2DE618842C5
:1013900006D92B2227A10C48FFF728FE0020DEE704
:1013A0000A48006864300A49086008E06E2D00D1E0
:1013B00005E00F222AA10448FFF718FEB1E700BF9D
:1013C0000120CCE750150008004400402C0000200C
:1013D000300000200D0A456E746572206E6577201E
:1013E0004C696D6974733A2000000000546F6F20DF
:1013F0006D616E79206368617261637465727320D8
:10140000656E74657265642E2E2E726573657474D4
:10141000696E672E2E2E0D0A000000002575000053
:101420000D0A496E70757420496E76616C69640DA1
:101430000A000000506572696F64206F7574206F38
:10144000662072616E676520353020746F203939EF
:1014500035306D732E2E2E2052657472790D0A0070
:101460000D0A496E70757420696E76616C6964004E
:101470001248806D40F00100104988654F208904B2
:1014800088620846406940F0010048610846006AE9
:1014900020F0010008620846806900F003008861BE
:1014A0000846806940F0010088610846006A40F003
:1014B000010008620120086070470000001002402F
:1014C00010B500290AD00878002807D005487844CC
:1014D000FFF728FB002801D0002010BD0248784407
:1014E00010BD0000F2000000EA0000004FF0407064
:1014F000E1EE100A704700004552524F523A204E1A
:101500006F2070756C73652077697468696E20311F
:1015100030306D732E2E2E0D0A504F5354204641FD
:10152000494C45443A20506C6561736520436865B9
:10153000636B20636F6E6E656374696F6E73206199
:101540006E642072657472792E2E2E0D0A000000D2
:101550004C6F776572204C696D69743A203935306B
:1015600075732C205570706572204C696D69743AE2
:10157000203130353075730D0A576F756C642079E2
:101580006F75206C696B6520746F206368616E678E
:101590006520746869733F2028792F6E293A00000E
:1015A000D01600080000002038000000C401000828
:1015B000081700083800002080070000E00100083C
:1015C0001001000043000000F8FFFFFF0040404012
:1015D0004040404040404141414141404040404006
:1015E00040404040404040404040404040050202B2
:1015F0000202020202020202020202020220202071
:1016000020202020202020020202020202029090CC
:1016100090909090101010101010101010101010CA
:10162000101010101010101002020202020288881E
:10163000888888880808080808080808080808082A
:101640000808080808080808020202024000000012
:10165000000000000000000000000000000000008A
:10166000000000000000000000000000000000007A
:10167000000000000000000000000000000000006A
:10168000000000000000000000000000000000005A
:10169000000000000000000000000000000000004A
:1016A000000000000000000000000000000000003A
:1016B000000000000000000000000000000000002A
:1016C000000000000000000000000000000000001A
:1016D000004D7920626F64792069732072656164BE
:1016E0007921212121004974206973206120312151
:1016F000212100000000000000000000B6030000EF
:081700001A04000000000000C3
:040000050800018965
:00000001FF
