:020000040800F2
:10000000B8060020290200086502000867020008FF
:10001000690200086B0200086D0200080000000081
:100020000000000000000000000000006F02000857
:100030007102000800000000730200087502000849
:1000400077020008770200087702000877020008AC
:10005000770200087702000877020008770200089C
:10006000770200087702000877020008770200088C
:10007000770200087702000877020008770200087C
:10008000770200087702000877020008770200086C
:10009000770200087702000877020008770200085C
:1000A000770200087702000877020008770200084C
:1000B000770200087702000877020008770200083C
:1000C000770200087702000877020008770200082C
:1000D000770200087702000877020008770200081C
:1000E000770200087702000877020008770200080C
:1000F00077020008770200087702000877020008FC
:1001000077020008770200087702000877020008EB
:1001100077020008770200087702000877020008DB
:1001200077020008770200087702000877020008CB
:1001300077020008770200087702000877020008BB
:1001400077020008770200087702000877020008AB
:10015000770200087702000877020008770200089B
:10016000770200087702000877020008770200088B
:1001700077020008770200087702000800000000FC
:10018000770200087702000800F002F800F03CF85F
:100190000AA090E8000C82448344AAF10107DA45E2
:1001A00001D100F031F8AFF2090EBAE80F0013F0F8
:1001B000010F18BFFB1A43F0010318476C0A000037
:1001C0008C0A0000103A24BF78C878C1FAD85207C8
:1001D00024BF30C830C144BF04680C6070470000C1
:1001E0000023002400250026103A28BF78C1FBD840
:1001F000520728BF30C148BF0B6070471FB500F0E1
:100200000DFD1FBD10B510BD00F053F81146FFF7EE
:10021000F5FF00F0ABFA00F071F803B4FFF7F2FF5E
:1002200003BC00F079F8000016481749174B9942B3
:100230003CBF50F8042B41F8042BF8D314494FF07D
:1002400000028B4238BF43F8042BFAD3DFF8440096
:10025000016841F470010160BFF34F8FBFF36F8FEE
:100260000D480047FEE7FEE7FEE7FEE7FEE7FEE794
:10027000FEE7FEE7FEE7FEE708480949094A0A4BA0
:1002800070470000480C00080000002058000020C3
:10029000B806002088ED00E089010008B8000020C1
:1002A000B8060020B8020020B8020020704770474E
:1002B0007047754600F02CF8AE4605006946534677
:1002C00020F00700854618B020B5FFF7D5FFBDE840
:1002D00020404FF000064FF000074FF000084FF0AD
:1002E000000B21F00701AC46ACE8C009ACE8C0093E
:1002F000ACE8C009ACE8C0098D46704710B50446AB
:10030000AFF300802046BDE81040FFF786BF000035
:10031000004870475800002001491820ABBEFEE796
:1003200026000200704700000348406920F48070F6
:1003300001494861704700000010004803484069C7
:1003400040F4807001494861704700000010004887
:100350002348C06C40F012002149C8646FF030009F
:10036000204908600846006840F0100008601D48F9
:100370000830006820F030001A490831086008464B
:10038000006840F030000860081F006820F004009A
:10039000091F086013480C30006820F03000114934
:1003A0000C3108606FF440300F490860084600685F
:1003B00040F4803008600846806820F4403088604F
:1003C0000846806840F4403088600846406820F461
:1003D000807048600846C06820F44030C8607047AC
:1003E0000010024000040048001000480348006864
:1003F00020F0040001490860704700001404004820
:100400000348006840F0040001490860704700009C
:10041000140400485E49096821F007015C4A116034
:100420001146096841F0020111605A49096841F416
:100430008071584A116000BF5649096801F4806113
:100440000029F9D010205349496821F0F851514A48
:1004500051601146496841EA0061516011460968DE
:1004600021F08071116000BF4A49096801F00071F4
:10047000B1F1007FF8D04749C96821F00301454A2E
:10048000D1601146C96841F00201D1601146C968C6
:1004900021F4FE4141F4A051D1601146C96821F018
:1004A000700141F01001D1601146C96821F0C061AE
:1004B000D1601146C96841F08071D1601146096868
:1004C00041F08071116000BF3249096801F000718C
:1004D0000029F9D02F49896821F003012D4A916044
:1004E0001146896841F00301916000BF294989687C
:1004F00001F00C010C29F9D12649896821F0F0019D
:10050000244A91601146896821F4E06191601146A6
:10051000896821F4605191601146096821F0806179
:10052000116000BF1B49096801F08061B1F1806F63
:10053000F8D01849096921F4FE41164A11611146A3
:10054000096941F4C05111611146096941F4003152
:1005500011611146096941F4803111611146096840
:1005600041F08061116000BF0A49096801F08061B3
:100570000029F9D007498831096821F44001054A6A
:10058000C2F888101146096E41F4001111667047D7
:1005900000200240001002401A48C06C40F00800E1
:1005A0001849C8641848006820F47050164908605B
:1005B0000846006840F42050086013482030006866
:1005C00040F0EE601049203108600F4808300068A4
:1005D00040F470500C4908310860081D006820F490
:1005E0007050091D08600846006840F4A05008607B
:1005F0000548001D006820F060000349091D0860DF
:100600007047000000100240000C004800B50D4883
:10061000806D40F400300B4988650A4888300068D6
:1006200020F00C00C1F888000846D0F8880040F09F
:100630000400C1F88800FFF7AFFF034800F010F88E
:1006400000BD00000010024000440040642242430C
:100650000723B2FBF3F100BF4A1E111EFCD1704705
:10066000016821F001010160016821F010210160A1
:10067000016821F400410160416821F4405141606A
:1006800042F28D01C160016841F00C0101601E4918
:1006900088421BD1016841F020010160016821F00E
:1006A00040010160016821F010010160016821F042
:1006B00080010160016821F480710160016821F00E
:1006C00040010160016821F0010101600F49884289
:1006D00009D1016A41F0400101620D49096841F008
:1006E000C0010B4A1160016841F00101016000BFC7
:1006F000C16901F400110029FAD000BFC16901F4F9
:1007000080010029FAD07047004C004000440040AE
:10071000083801400246D06900F0200010B90020DE
:1007200008707047908C0870FF20FAE7F0B5044617
:100730000E46174600250CE000BFE06900F080007F
:100740000028FAD0705D20854FF49670FFF77EFF89
:100750006D1CBD42F0D300BFE06900F040000028EE
:10076000FAD0E06920F04000E061F0BD08B5FFF785
:1007700051FEFFF7EDFDFFF749FF00F0F1F900F042
:100780000FFA0020234908704870112222A127483F
:10079000FFF7CCFFFFF7C8FDFFF728FE39E0002484
:1007A00027E01FE0012269462048FFF7BFFF9DF8C0
:1007B00000000D280FD103221DA11C48FFF7B6FF32
:1007C0001C490878002100F03BF81A4948780121BB
:1007D00000F036F806E017484078164908709DF892
:1007E0000000487069461148FFF794FF0028D9D1EE
:1007F000641C11488442D4DB1048007810B10020FA
:1008000000F0ACF80D48407810B1012000F0A6F8D7
:1008100000BFC4E74E000020536574757020436F1D
:100820006D706C6574650D0A3E0000000044004068
:100830000D0A3E004C000020B69F0400400000203E
:1008400070B505460C46622D53D00EDC4E2D4FD0B0
:1008500006DC422D4ED0432D40D04C2D59D123E003
:10086000502D34D0522D54D10CE06E2D3FD004DCED
:10087000632D32D06C2D4CD115E0702D26D0722D09
:1008800047D100BF2748005D60B12648005D401E8B
:10089000C0B224490855244931F81000234951F8C1
:1008A000241008603BE000BF1E48005D05280CD006
:1008B0001C48005D401CC0B21A4908551A4931F85D
:1008C00010001A4951F82410086028E000BF0020E9
:1008D00017490855FFF728FD21E000BF1548005DC6
:1008E00020B1FF2012490855FFF728FD17E000BF8F
:1008F00015E000BFFF200E49085500200D4908559E
:100900000D4908550D490855FFF718FDFFF76EFD15
:1009100005E015220AA11048FFF708FF00BF00BF3D
:1009200070BD00003C000020280000204400002092
:10093000400000203E0000204E0000205400002017
:100940005573657220436F6D6D616E6420457272E0
:100950006F720D0A3E0000000044004070B504466E
:1009600004EB8400684901EB80006849095D405C44
:1009700000F0E00604EB8400634901EB800063496A
:10098000095D405C00F01F056148005D002805DD41
:100990005F48005D401E5E49085570BD06F01F00AF
:1009A000002879D17011072876D2DFE800F09A0488
:1009B000974A68802D00052D10DD2A2255A1604838
:1009C000FFF7B4FE00205F490855504908555E49BD
:1009D00008554F490855FFF713FD14E05B49095DC1
:1009E000481B002801DB014600E041424906090E90
:1009F000474A115555480555554830F81500554991
:100A000051F82410086077E05048005D58B14F4914
:100A1000095D481B002801DB014600E04142490610
:100A2000090E3B4A11554948005D401EC0B2474976
:100A30000855474931F81000464951F8241008601C
:100A40005AE04248005D05280BD04049095D481B2B
:100A5000002801DB014600E041424906090E2C4A0C
:100A600011553A48005D401CC0B238490855384914
:100A700031F81000374951F8241008603CE0324842
:100A8000005D50B10020214908552E490855FFF757
:100A9000B7FCFFF753FC80E729E0FF202A490855FF
:100AA0001A48005D2C4908552C48055524E0264875
:100AB000005D10B9FFF7A4FC0FE02848005D18B9ED
:100AC00000202149085508E02448005D401E2349C4
:100AD00008552148005D0D4908550DE00C480555A5
:100AE0000AE00020094908551649085555E7FFF75F
:100AF00087FCFFF719FC00BF00BF0448005D401CE5
:100B00000249085500BF48E7000000203E000020D1
:100B1000540000204D4F5620417267756D656E740C
:100B2000206572726F720D0A2053746F7070696E57
:100B30006720457865637574696F6E0D0A3E000025
:100B400000440040400000204E0000203C000020F7
:100B50002800002044000020500000205200002007
:100B60000E48C06C40F001000C49C8644FF0904042
:100B7000006820F00F004FF09041086008460068C0
:100B800040F00A0008600846006A20F00F00086282
:100B90000846006A40F011000862704700100240E9
:100BA0001C48806D40F001001A4988654F20890477
:100BB00088620846006A20F00100086208468069E1
:100BC00020F0030088610846806920F44070886145
:100BD0000846806946F668010843C90688610846E8
:100BE000006840F0800008600846006A40F011008C
:100BF000086244F62060C8620748008848630648D7
:100C0000008888630846406940F00100486101207F
:100C10000860704700100240280000204FF040702C
:100C2000E1EE100A70470000480C000800000020A8
:100C300058000000C4010008A00C00085800002063
:100C400060060000E00100082025202D802124A05E
:100C5000202240234022235F5F5F240020252023A1
:100C6000802124A0202240234022235F5F5F2400B4
:100C70000D02E20241049F05FE06F8070000000095
:100C800000000000000000000000000034000040F0
:100C900038000040000000000000000000000000DC
:040000050800018965
:00000001FF
