:020000040800F2
:10000000D8070020290200086502000867020008DE
:10001000690200086B0200086D0200080000000081
:100020000000000000000000000000006F02000857
:100030007102000800000000730200087502000849
:1000400077020008770200087702000877020008AC
:1000500077020008770200082903000877020008E9
:10006000770200087702000877020008770200088C
:10007000770200087702000877020008770200087C
:10008000770200087702000877020008770200086C
:10009000770200087702000877020008770200085C
:1000A000770200087702000877020008770200084C
:1000B000770200087702000877020008770200083C
:1000C000770200087702000877020008770200082C
:1000D000770200087702000877020008770200081C
:1000E000770200087702000877020008770200080C
:1000F00077020008770200087702000877020008FC
:1001000077020008770200087702000877020008EB
:1001100077020008770200087702000877020008DB
:1001200077020008770200087702000877020008CB
:1001300077020008770200087702000877020008BB
:1001400077020008770200087702000877020008AB
:10015000770200087702000877020008770200089B
:10016000770200087702000877020008770200088B
:1001700077020008770200087702000800000000FC
:10018000770200087702000800F002F800F03CF85F
:100190000AA090E8000C82448344AAF10107DA45E2
:1001A00001D100F031F8AFF2090EBAE80F0013F0F8
:1001B000010F18BFFB1A43F0010318470C0600009B
:1001C0002C060000103A24BF78C878C1FAD852072C
:1001D00024BF30C830C144BF04680C6070470000C1
:1001E0000023002400250026103A28BF78C1FBD840
:1001F000520728BF30C148BF0B6070471FB500F0E1
:10020000DDFA1FBD10B510BD00F053F81146FFF721
:10021000F5FF00F04DFA00F071F803B4FFF7F2FFBC
:1002200003BC00F079F8000016481749174B9942B3
:100230003CBF50F8042B41F8042BF8D314494FF07D
:1002400000028B4238BF43F8042BFAD3DFF8440096
:10025000016841F470010160BFF34F8FBFF36F8FEE
:100260000D480047FEE7FEE7FEE7FEE7FEE7FEE794
:10027000FEE7FEE7FEE7FEE708480949094A0A4BA0
:1002800070470000E8070008000000205800002028
:10029000D807002088ED00E089010008D80100207F
:1002A000D8070020D8030020D803002070477047EB
:1002B0007047754600F02CF8AE4605006946534677
:1002C00020F00700854618B020B5FFF7D5FFBDE840
:1002D00020404FF000064FF000074FF000084FF0AD
:1002E000000B21F00701AC46ACE8C009ACE8C0093E
:1002F000ACE8C009ACE8C0098D46704710B50446AB
:10030000AFF300802046BDE81040FFF786BF000035
:10031000004870477401002001491820ABBEFEE779
:10032000260002007047000001201B49086080077A
:10033000406B1A49086000204FF08041486218481D
:10034000008808B316480088B0F57A7F1CDC144892
:100350000088401C1249088010480068114909684B
:10036000401A652810D20D4800680E490968401AE5
:100370000D4931F81000401C08490968094A126803
:10038000891A094A22F811000848006840F0010063
:100390000649086070470000440000204800002023
:1003A000540000204C000020AA000020140401404A
:1003B0005E49096821F007015C4A1160114609682D
:1003C00041F0020111605A49096841F48071584AAC
:1003D000116000BF5649096801F480610029F9D015
:1003E00010205349496821F0F851514A5160114693
:1003F000496841EA006151601146096821F0807145
:10040000116000BF4A49096801F00071B1F1007F35
:10041000F8D04749C96821F00301454AD160114627
:10042000C96841F00201D1601146C96821F4FE415A
:1004300041F4A051D1601146C96821F0700141F02A
:100440001001D1601146C96821F0C061D160114628
:10045000C96841F08071D1601146096841F080712E
:10046000116000BF3249096801F000710029F9D01C
:100470002F49896821F003012D4A9160114689684E
:1004800041F00301916000BF2949896801F00C0126
:100490000C29F9D12649896821F0F001244A91609C
:1004A0001146896821F4E06191601146896821F460
:1004B000605191601146096821F08061116000BFB0
:1004C0001B49096801F08061B1F1806FF8D01849CB
:1004D000096921F4FE41164A11611146096941F486
:1004E000C05111611146096941F400311161114691
:1004F000096941F4803111611146096841F0806158
:10050000116000BF0A49096801F080610029F9D033
:1005100007498831096821F44001054AC2F888106A
:100520001146096E41F40011116670470020024027
:10053000001002401A48C06C40F008001849C86416
:100540001848006820F47050164908600846006892
:1005500040F42050086013482030006840F0EE60FE
:100560001049203108600F480830006840F470508E
:100570000C4908310860081D006820F47050091DFE
:1005800008600846006840F4A05008600548001D57
:10059000006820F060000349091D086070470000F2
:1005A00000100240000C004800B50D48806D40F47A
:1005B00000300B4988650A488830006820F00C003C
:1005C000C1F888000846D0F8880040F00400C1F85F
:1005D0008800FFF7AFFF034800F006F800BD0000F9
:1005E0000010024000440040016821F00101016058
:1005F000016821F010210160016821F400410160CF
:10060000416821F44051416042F28D01C1600168AE
:1006100041F00C0101601E4988421BD1016841F084
:1006200020010160016821F040010160016821F0B2
:1006300010010160016821F080010160016821F46E
:1006400080710160016821F040010160016821F0C2
:10065000010101600F49884209D1016A41F040015E
:1006600001620D49096841F0C0010B4A116001683F
:1006700041F00101016000BFC16901F400110029CE
:10068000FAD000BFC16901F480010029FAD0704797
:10069000004C00400044004008380140014600BFC3
:1006A000C86900F020000028FAD0888CC0B27047DA
:1006B0000024FFF77DFEFFF777FF00F021F800F040
:1006C0003FF818E00C48FFF7E9FF0446A4F13000BA
:1006D0000A4931F810004FF0804148630024064871
:1006E000FFF7DCFF0446A4F13000044931F81000A4
:1006F0004FF080418863E5E700440040140000208B
:100700000E48C06C40F001000C49C8644FF09040A6
:10071000006820F00F004FF0904108600846006824
:1007200040F00A0008600846006A20F00F000862E6
:100730000846006A40F0110008627047001002404D
:100740001C48806D40F001001A4988654F208904DB
:1007500088620846006A20F0010008620846806945
:1007600020F0030088610846806920F440708861A9
:100770000846806946F668010843C906886108464C
:10078000006840F0800008600846006A40F01100F0
:10079000086244F62060C86207480088486306483B
:1007A000008888630846406940F0010048610120E4
:1007B0000860704700100240140000204FF04070A5
:1007C000E1EE100A70470000E80700080000002072
:1007D00058000000C401000840080008580000202C
:1007E00080070000E001000820252023802124A0AC
:1007F000202240234022235F5F5F24000D02E2029B
:1008000041049F05FE06F807004D7920626F647968
:100810002069732072656164792121212100497466
:100820002069732061203121212100000000000097
:1008300000000000B60300001A04000000000000E1
:040000050800018965
:00000001FF
