:020000040800F2
:10000000C8060020290200086502000867020008EF
:10001000690200086B0200086D0200080000000081
:100020000000000000000000000000006F02000857
:100030007102000800000000730200087502000849
:1000400077020008770200087702000877020008AC
:10005000770200087702000877020008770200089C
:10006000770200087702000877020008770200088C
:10007000770200087702000877020008770200087C
:10008000770200087702000877020008770200086C
:10009000770200087702000877020008770200085C
:1000A000770200087702000877020008770200084C
:1000B000770200087702000877020008770200083C
:1000C000770200087702000877020008770200082C
:1000D000770200087702000877020008770200081C
:1000E000770200087702000877020008770200080C
:1000F00077020008770200087702000877020008FC
:1001000077020008770200087702000877020008EB
:1001100077020008770200087702000877020008DB
:1001200077020008770200087702000877020008CB
:1001300077020008770200087702000877020008BB
:1001400077020008770200087702000877020008AB
:10015000770200087702000877020008770200089B
:10016000770200087702000877020008770200088B
:1001700077020008770200087702000800000000FC
:10018000770200087702000800F002F800F03CF85F
:100190000AA090E8000C82448344AAF10107DA45E2
:1001A00001D100F031F8AFF2090EBAE80F0013F0F8
:1001B000010F18BFFB1A43F001031847FC080000A9
:1001C0001C090000103A24BF78C878C1FAD8520739
:1001D00024BF30C830C144BF04680C6070470000C1
:1001E0000023002400250026103A28BF78C1FBD840
:1001F000520728BF30C148BF0B6070471FB500F0E1
:1002000055FC1FBD10B510BD00F053F81146FFF7A7
:10021000F5FF00F035FA00F071F803B4FFF7F2FFD4
:1002200003BC00F079F8000016481749174B9942B3
:100230003CBF50F8042B41F8042BF8D314494FF07D
:1002400000028B4238BF43F8042BFAD3DFF8440096
:10025000016841F470010160BFF34F8FBFF36F8FEE
:100260000D480047FEE7FEE7FEE7FEE7FEE7FEE794
:10027000FEE7FEE7FEE7FEE708480949094A0A4BA0
:1002800070470000D80A0008000000206400002029
:10029000C806002088ED00E089010008C8000020A1
:1002A000C8060020C8020020C8020020704770471E
:1002B0007047754600F02CF8AE4605006946534677
:1002C00020F00700854618B020B5FFF7D5FFBDE840
:1002D00020404FF000064FF000074FF000084FF0AD
:1002E000000B21F00701AC46ACE8C009ACE8C0093E
:1002F000ACE8C009ACE8C0098D46704710B50446AB
:10030000AFF300802046BDE81040FFF786BF000035
:10031000004870476400002001491820ABBEFEE78A
:1003200026000200704700005E49096821F00701BD
:100330005C4A11601146096841F0020111605A4996
:10034000096841F48071584A116000BF5649096834
:1003500001F480610029F9D010205349496821F047
:10036000F851514A51601146496841EA00615160B3
:100370001146096821F08071116000BF4A4909687F
:1003800001F00071B1F1007FF8D04749C96821F050
:100390000301454AD1601146C96841F00201D160AC
:1003A0001146C96821F4FE4141F4A051D1601146C3
:1003B000C96821F0700141F01001D1601146C9688F
:1003C00021F0C061D1601146C96841F08071D160EF
:1003D0001146096841F08071116000BF3249096817
:1003E00001F000710029F9D02F49896821F003013B
:1003F0002D4A91601146896841F00301916000BF68
:100400002949896801F00C010C29F9D1264989682C
:1004100021F0F001244A91601146896821F4E061DD
:1004200091601146896821F4605191601146096814
:1004300021F08061116000BF1B49096801F08061F3
:10044000B1F1806FF8D01849096921F4FE41164ACC
:1004500011611146096941F4C051116111460969E0
:1004600041F4003111611146096941F48031116193
:100470001146096841F08061116000BF0A490968AE
:1004800001F080610029F9D007498831096821F419
:100490004001054AC2F888101146096E41F4001166
:1004A0001166704700200240001002401A48C06CDC
:1004B00040F008001849C8641848006820F47050DB
:1004C000164908600846006840F420500860134848
:1004D0002030006840F0EE601049203108600F487D
:1004E0000830006840F470500C4908310860081D5D
:1004F000006820F47050091D08600846006840F448
:10050000A05008600548001D006820F06000034905
:10051000091D08607047000000100240000C0048F0
:1005200000B50D48806D40F400300B4988650A48DD
:100530008830006820F00C00C1F888000846D0F828
:10054000880040F00400C1F88800FFF7AFFF0348BF
:1005500000F010F800BD0000001002400044004010
:10056000642242430723B2FBF3F100BF4A1E111E6F
:10057000FCD17047016821F001010160016821F0A0
:1005800010210160016821F400410160416821F4FB
:100590004051416042F28D01C160016841F00C019F
:1005A00001601E4988421BD1016841F020010160B1
:1005B000016821F040010160016821F01001016033
:1005C000016821F080010160016821F480710160FF
:1005D000016821F040010160016821F00101016022
:1005E0000F49884209D1016A41F0400101620D4979
:1005F000096841F0C0010B4A1160016841F0010136
:10060000016000BFC16901F400110029FAD000BFE8
:10061000C16901F480010029FAD07047004C004004
:1006200000440040083801400246D06900F0200034
:1006300010B9002008707047908C0870FF20FAE70E
:10064000F0B504460E46174600250CE000BFE069F1
:1006500000F080000028FAD0705D20854FF496707D
:10066000FFF77EFF6D1CBD42F0D300BFE06900F0D4
:1006700040000028FAD0E06920F04000E061F0BDC1
:1006800008B5FFF751FEFFF74BFF00F0B1F900F09E
:10069000CFF90020244908704870112223A128486E
:1006A000FFF7CEFF3EE01AE09DF800000D280FD1C5
:1006B000032224A12248FFF7C3FF23490878002121
:1006C00000F04CF820494878012100F047F806E096
:1006D0001D4840781C4908709DF800004870694624
:1006E0001748FFF7A1FF0028DED11848007838B17D
:1006F000022217A11248FFF7A3FF002000F096F88E
:100700001248407838B1022212A10D48FFF798FF35
:10071000012000F08BF8002000E0401C0E498842C8
:10072000FBDB00BFBFE700005A0000205365747573
:100730007020436F6D706C6574650D0A3E0000009B
:10074000004400400D0A3E00580000204C000020EC
:10075000313A0000323A000000127A0062284CD090
:100760000EDC4E2848D006DC422847D043283ED035
:100770004C284CD123E0502834D0522847D10CE0EB
:100780006E2838D004DC632830D06C283FD115E0C7
:10079000702826D072283AD100BF1E4A525C62B13E
:1007A0001C4A525C521ED2B21A4B5A541A4B33F89E
:1007B00012201A4B53F821301A6029E000BF154A65
:1007C000525C052A0CD0134A525C521CD2B2114B17
:1007D0005A54114B33F81220104B53F821301A6041
:1007E00016E000BF00220E4B5A5411E000BFFF225A
:1007F0000B4B5A540CE000BF0AE000BFFF22084B2D
:100800005A540022074B5A54074B5A5400E000BF79
:1008100000BF704748000020140000205000002056
:100820004C0000204A0000205A00002070B5044609
:100830004C48005D4C49085C00F0E0064948005D0A
:10084000085C00F01F054948005D00280ADD03220E
:1008500047A14848FFF7F4FE4448005D401E434965
:10086000085570BD402E61D004DC002E66D0202ECD
:100870006FD104E0802E2ED0A02E6AD13DE005225B
:100880003DA13C48FFF7DCFE052D0EDD2A223CA1F0
:100890003848FFF7D5FE002044490855314908552E
:1008A000434908553149085514E04249095D481B40
:1008B000002801DB014600E041424906090E2B4AAF
:1008C00011553C4805553C4830F815003B4951F856
:1008D000241008603DE0062239A12648FFF7B0FE4B
:1008E0003348005D40B9FF20314908551D48005D7F
:1008F00035490855354805552BE0092234A11D48D6
:10090000FFF79EFE2A48005D78B13048005D18B9B7
:1009100000202749085508E02C48005D401E2B495F
:1009200008552948005D0F49085512E006222BA101
:100930001048FFF785FE0D4805550AE00B2229A156
:100940000C48FFF77DFE0020064908551749085559
:1009500087E700BF0348005D401C0249085500BFFF
:100960007FE700004A000020000000206000002017
:100970002E0D0A00004400404D4F560D0A000000A5
:100980004D4F5620417267756D656E7420657272A9
:100990006F720D0A2053746F7070696E672045780E
:1009A00065637574696F6E0D0A3E00004C0000208F
:1009B0005A000020480000201400002050000020B1
:1009C0004C4F4F500D0A00005C0000205E000020DC
:1009D000454E444C4F4F500D0A00000057414954BA
:1009E0000D0A0000524543495045454E440D0A004A
:1009F0000E48C06C40F001000C49C8644FF09040B4
:100A0000006820F00F004FF0904108600846006831
:100A100040F00A0008600846006A20F00F000862F3
:100A20000846006A40F0110008627047001002405A
:100A30001C48806D40F001001A4988654F208904E8
:100A400088620846006A20F0010008620846806952
:100A500020F0030088610846806920F440708861B6
:100A60000846806946F668010843C9068861084659
:100A7000006840F0800008600846006A40F01100FD
:100A8000086244F62060C862074800884863064848
:100A9000008888630846406940F0010048610120F1
:100AA0000860704700100240140000204FF04070B2
:100AB000E1EE100A70470000D80A0008000000208C
:100AC00064000000C40100083C0B00086400002022
:100AD00064060000E001000820252023802124A0D6
:100AE000202240234022235F5F5F24000D02E202A8
:100AF00041049F05FE06F807004D7920626F647976
:100B00002069732072656164792121212100497473
:100B100020697320612031212121000000000000A4
:100B200000000000000000003400004038000040D9
:0C0B3000000000000000000000000000B9
:040000050800018965
:00000001FF
