:020000040800F2
:10000000C0060020290200086502000867020008F7
:10001000690200086B0200086D0200080000000081
:100020000000000000000000000000006F02000857
:100030007102000800000000730200087502000849
:1000400077020008770200087702000877020008AC
:10005000770200087702000877020008770200089C
:10006000770200087702000877020008770200088C
:10007000770200087702000877020008770200087C
:10008000770200087702000877020008770200086C
:10009000770200087702000877020008770200085C
:1000A000770200087702000877020008770200084C
:1000B000770200087702000877020008770200083C
:1000C000770200087702000877020008770200082C
:1000D000770200087702000877020008770200081C
:1000E000770200087702000877020008770200080C
:1000F00077020008770200087702000877020008FC
:1001000077020008770200087702000877020008EB
:1001100077020008770200087702000877020008DB
:1001200077020008770200087702000877020008CB
:1001300077020008770200087702000877020008BB
:1001400077020008770200087702000877020008AB
:10015000770200087702000877020008770200089B
:10016000770200087702000877020008770200088B
:1001700077020008770200087702000800000000FC
:10018000770200087702000800F002F800F03CF85F
:100190000AA090E8000C82448344AAF10107DA45E2
:1001A00001D100F031F8AFF2090EBAE80F0013F0F8
:1001B000010F18BFFB1A43F0010318475C0600004B
:1001C0007C060000103A24BF78C878C1FAD85207DC
:1001D00024BF30C830C144BF04680C6070470000C1
:1001E0000023002400250026103A28BF78C1FBD840
:1001F000520728BF30C148BF0B6070471FB500F0E1
:1002000005FB1FBD10B510BD00F053F81146FFF7F8
:10021000F5FF00F00BFA00F071F803B4FFF7F2FFFE
:1002200003BC00F079F8000016481749174B9942B3
:100230003CBF50F8042B41F8042BF8D314494FF07D
:1002400000028B4238BF43F8042BFAD3DFF8440096
:10025000016841F470010160BFF34F8FBFF36F8FEE
:100260000D480047FEE7FEE7FEE7FEE7FEE7FEE794
:10027000FEE7FEE7FEE7FEE708480949094A0A4BA0
:100280007047000038080008000000205C000020D3
:10029000C006002088ED00E089010008C0000020B1
:1002A000C0060020C0020020C00200207047704736
:1002B0007047754600F02CF8AE4605006946534677
:1002C00020F00700854618B020B5FFF7D5FFBDE840
:1002D00020404FF000064FF000074FF000084FF0AD
:1002E000000B21F00701AC46ACE8C009ACE8C0093E
:1002F000ACE8C009ACE8C0098D46704710B50446AB
:10030000AFF300802046BDE81040FFF786BF000035
:10031000004870475C00002001491820ABBEFEE792
:1003200026000200704700005E49096821F00701BD
:100330005C4A11601146096841F0020111605A4996
:10034000096841F48071584A116000BF5649096834
:1003500001F480610029F9D010205349496821F047
:10036000F851514A51601146496841EA00615160B3
:100370001146096821F08071116000BF4A4909687F
:1003800001F00071B1F1007FF8D04749C96821F050
:100390000301454AD1601146C96841F00201D160AC
:1003A0001146C96821F4FE4141F4A051D1601146C3
:1003B000C96821F0700141F01001D1601146C9688F
:1003C00021F0C061D1601146C96841F08071D160EF
:1003D0001146096841F08071116000BF3249096817
:1003E00001F000710029F9D02F49896821F003013B
:1003F0002D4A91601146896841F00301916000BF68
:100400002949896801F00C010C29F9D1264989682C
:1004100021F0F001244A91601146896821F4E061DD
:1004200091601146896821F4605191601146096814
:1004300021F08061116000BF1B49096801F08061F3
:10044000B1F1806FF8D01849096921F4FE41164ACC
:1004500011611146096941F4C051116111460969E0
:1004600041F4003111611146096941F48031116193
:100470001146096841F08061116000BF0A490968AE
:1004800001F080610029F9D007498831096821F419
:100490004001054AC2F888101146096E41F4001166
:1004A0001166704700200240001002401A48C06CDC
:1004B00040F008001849C8641848006820F47050DB
:1004C000164908600846006840F420500860134848
:1004D0002030006840F0EE601049203108600F487D
:1004E0000830006840F470500C4908310860081D5D
:1004F000006820F47050091D08600846006840F448
:10050000A05008600548001D006820F06000034905
:10051000091D08607047000000100240000C0048F0
:1005200000B50D48806D40F400300B4988650A48DD
:100530008830006820F00C00C1F888000846D0F828
:10054000880040F00400C1F88800FFF7AFFF0348BF
:1005500000F006F800BD000000100240004400401A
:10056000016821F001010160016821F010210160A2
:10057000016821F400410160416821F4405141606B
:1005800042F28D01C160016841F00C0101601E4919
:1005900088421BD1016841F020010160016821F00F
:1005A00040010160016821F010010160016821F043
:1005B00080010160016821F480710160016821F00F
:1005C00040010160016821F0010101600F4988428A
:1005D00009D1016A41F0400101620D49096841F009
:1005E000C0010B4A1160016841F00101016000BFC8
:1005F000C16901F400110029FAD000BFC16901F4FA
:1006000080010029FAD07047004C004000440040AF
:10061000083801400246D06900F0200010B90020DF
:1006200008707047908C0870FF20FAE708B500BF8B
:10063000FFF77AFEFFF774FF00F08AF800F0A8F8E1
:100640001DE015E09DF800000D280AD10C4908783E
:10065000002100F019F80A494878012100F014F847
:1006600006E007484078064908709DF80000487089
:1006700069460448FFF7CEFF0028E3D100BFE0E75A
:10068000580000200044004062284CD00EDC4E2868
:1006900048D006DC422847D043283ED04C284AD1D7
:1006A00023E0502834D0522845D10CE06E2838D0B1
:1006B00004DC632830D06C283DD115E0702826D0AA
:1006C000722838D100BF1D4A525C62B11B4A525C8D
:1006D000521ED2B2194B5A54194B33F81220194BEF
:1006E00053F821301A6027E000BF144A525C052AF3
:1006F0000CD0124A525C521CD2B2104B5A54104BBE
:1007000033F812200F4B53F821301A6014E000BF69
:1007100000220D4B5A540FE000BFFF220A4B5A54DF
:100720000AE000BF08E000BFFF22074B5A54002236
:10073000064B5A5400E000BF00BF7047480000203D
:1007400014000020500000204C0000204A0000202F
:100750000E48C06C40F001000C49C8644FF0904056
:10076000006820F00F004FF09041086008460068D4
:1007700040F00A0008600846006A20F00F00086296
:100780000846006A40F011000862704700100240FD
:100790001C48806D40F001001A4988654F2089048B
:1007A00088620846006A20F00100086208468069F5
:1007B00020F0030088610846806920F44070886159
:1007C0000846806946F668010843C90688610846FC
:1007D000006840F0800008600846006A40F01100A0
:1007E000086244F62060C8620748008848630648EB
:1007F000008888630846406940F001004861012094
:100800000860704700100240140000204FF0407054
:10081000E1EE100A704700003808000800000020D0
:100820005C000000C4010008940800085C0000207F
:1008300064060000E001000820252023802124A078
:10084000202240234022235F5F5F24000D02E2024A
:1008500041049F05FE06F807004D7920626F647918
:100860002069732072656164792121212100497416
:100870002069732061203121212100000000000047
:10088000000000000000000034000040380000407C
:040890000000000064
:040000050800018965
:00000001FF
